{
  "_format": "hh-sol-artifact-1",
  "contractName": "chainQ",
  "sourceName": "contracts/ChainQ-scroll.sol",
  "abi": [
    {
      "inputs": [
        {
          "internalType": "address",
          "name": "target",
          "type": "address"
        }
      ],
      "name": "AddressEmptyCode",
      "type": "error"
    },
    {
      "inputs": [
        {
          "internalType": "address",
          "name": "implementation",
          "type": "address"
        }
      ],
      "name": "ERC1967InvalidImplementation",
      "type": "error"
    },
    {
      "inputs": [],
      "name": "ERC1967NonPayable",
      "type": "error"
    },
    {
      "inputs": [],
      "name": "FailedInnerCall",
      "type": "error"
    },
    {
      "inputs": [],
      "name": "InvalidInitialization",
      "type": "error"
    },
    {
      "inputs": [],
      "name": "NotInitializing",
      "type": "error"
    },
    {
      "inputs": [
        {
          "internalType": "address",
          "name": "owner",
          "type": "address"
        }
      ],
      "name": "OwnableInvalidOwner",
      "type": "error"
    },
    {
      "inputs": [
        {
          "internalType": "address",
          "name": "account",
          "type": "address"
        }
      ],
      "name": "OwnableUnauthorizedAccount",
      "type": "error"
    },
    {
      "inputs": [],
      "name": "UUPSUnauthorizedCallContext",
      "type": "error"
    },
    {
      "inputs": [
        {
          "internalType": "bytes32",
          "name": "slot",
          "type": "bytes32"
        }
      ],
      "name": "UUPSUnsupportedProxiableUUID",
      "type": "error"
    },
    {
      "anonymous": false,
      "inputs": [
        {
          "indexed": true,
          "internalType": "address",
          "name": "user",
          "type": "address"
        },
        {
          "indexed": false,
          "internalType": "uint256",
          "name": "amount",
          "type": "uint256"
        }
      ],
      "name": "BalanceWithdrawn",
      "type": "event"
    },
    {
      "anonymous": false,
      "inputs": [
        {
          "indexed": false,
          "internalType": "uint64",
          "name": "version",
          "type": "uint64"
        }
      ],
      "name": "Initialized",
      "type": "event"
    },
    {
      "anonymous": false,
      "inputs": [
        {
          "indexed": true,
          "internalType": "address",
          "name": "previousOwner",
          "type": "address"
        },
        {
          "indexed": true,
          "internalType": "address",
          "name": "newOwner",
          "type": "address"
        }
      ],
      "name": "OwnershipTransferred",
      "type": "event"
    },
    {
      "anonymous": false,
      "inputs": [
        {
          "indexed": false,
          "internalType": "uint256",
          "name": "newPrice",
          "type": "uint256"
        }
      ],
      "name": "SubscriptionPriceChanged",
      "type": "event"
    },
    {
      "anonymous": false,
      "inputs": [
        {
          "indexed": true,
          "internalType": "address",
          "name": "user",
          "type": "address"
        },
        {
          "indexed": false,
          "internalType": "uint256",
          "name": "amount",
          "type": "uint256"
        }
      ],
      "name": "SubscriptionPurchased",
      "type": "event"
    },
    {
      "anonymous": false,
      "inputs": [
        {
          "indexed": true,
          "internalType": "address",
          "name": "implementation",
          "type": "address"
        }
      ],
      "name": "Upgraded",
      "type": "event"
    },
    {
      "inputs": [],
      "name": "UPGRADE_INTERFACE_VERSION",
      "outputs": [
        {
          "internalType": "string",
          "name": "",
          "type": "string"
        }
      ],
      "stateMutability": "view",
      "type": "function"
    },
    {
      "inputs": [
        {
          "internalType": "address",
          "name": "",
          "type": "address"
        }
      ],
      "name": "balances",
      "outputs": [
        {
          "internalType": "uint256",
          "name": "",
          "type": "uint256"
        }
      ],
      "stateMutability": "view",
      "type": "function"
    },
    {
      "inputs": [
        {
          "internalType": "uint256",
          "name": "newPrice",
          "type": "uint256"
        }
      ],
      "name": "changeSubscriptionPrice",
      "outputs": [],
      "stateMutability": "nonpayable",
      "type": "function"
    },
    {
      "inputs": [],
      "name": "deleteSubscription",
      "outputs": [],
      "stateMutability": "nonpayable",
      "type": "function"
    },
    {
      "inputs": [],
      "name": "getContractBalance",
      "outputs": [
        {
          "internalType": "uint256",
          "name": "",
          "type": "uint256"
        }
      ],
      "stateMutability": "view",
      "type": "function"
    },
    {
      "inputs": [
        {
          "internalType": "address",
          "name": "user",
          "type": "address"
        }
      ],
      "name": "getSubscriptionStatus",
      "outputs": [
        {
          "internalType": "bool",
          "name": "hasSubscription",
          "type": "bool"
        },
        {
          "internalType": "uint256",
          "name": "expirationTimestamp",
          "type": "uint256"
        }
      ],
      "stateMutability": "view",
      "type": "function"
    },
    {
      "inputs": [
        {
          "internalType": "uint256",
          "name": "_subscriptionPrice",
          "type": "uint256"
        }
      ],
      "name": "initialize",
      "outputs": [],
      "stateMutability": "nonpayable",
      "type": "function"
    },
    {
      "inputs": [],
      "name": "owner",
      "outputs": [
        {
          "internalType": "address",
          "name": "",
          "type": "address"
        }
      ],
      "stateMutability": "view",
      "type": "function"
    },
    {
      "inputs": [],
      "name": "proxiableUUID",
      "outputs": [
        {
          "internalType": "bytes32",
          "name": "",
          "type": "bytes32"
        }
      ],
      "stateMutability": "view",
      "type": "function"
    },
    {
      "inputs": [],
      "name": "purchaseSubscription",
      "outputs": [],
      "stateMutability": "payable",
      "type": "function"
    },
    {
      "inputs": [],
      "name": "renounceOwnership",
      "outputs": [],
      "stateMutability": "nonpayable",
      "type": "function"
    },
    {
      "inputs": [],
      "name": "subscriptionPrice",
      "outputs": [
        {
          "internalType": "uint256",
          "name": "",
          "type": "uint256"
        }
      ],
      "stateMutability": "view",
      "type": "function"
    },
    {
      "inputs": [
        {
          "internalType": "address",
          "name": "",
          "type": "address"
        }
      ],
      "name": "subscriptions",
      "outputs": [
        {
          "internalType": "uint256",
          "name": "",
          "type": "uint256"
        }
      ],
      "stateMutability": "view",
      "type": "function"
    },
    {
      "inputs": [
        {
          "internalType": "address",
          "name": "newOwner",
          "type": "address"
        }
      ],
      "name": "transferOwnership",
      "outputs": [],
      "stateMutability": "nonpayable",
      "type": "function"
    },
    {
      "inputs": [
        {
          "internalType": "address",
          "name": "newImplementation",
          "type": "address"
        },
        {
          "internalType": "bytes",
          "name": "data",
          "type": "bytes"
        }
      ],
      "name": "upgradeToAndCall",
      "outputs": [],
      "stateMutability": "payable",
      "type": "function"
    },
    {
      "inputs": [
        {
          "internalType": "uint256",
          "name": "amount",
          "type": "uint256"
        }
      ],
      "name": "withdrawFunds",
      "outputs": [],
      "stateMutability": "nonpayable",
      "type": "function"
    },
    {
      "stateMutability": "payable",
      "type": "receive"
    }
  ],
  "bytecode": "0x60a06040523073ffffffffffffffffffffffffffffffffffffffff1660809073ffffffffffffffffffffffffffffffffffffffff1681525034801561004357600080fd5b50608051611b5d61006d60003960008181610b4c01528181610ba10152610d5c0152611b5d6000f3fe6080604052600436106100f75760003560e01c80638da5cb5b1161008a578063db1bed2211610059578063db1bed22146102f1578063f046395a146102fb578063f2fde38b14610338578063fe4b84df14610361576100fe565b80638da5cb5b14610259578063ad3cb1cc14610284578063bdc8e54c146102af578063cecea4c3146102da576100fe565b80634f1ef286116100c65780634f1ef286146101d057806352d1902d146101ec5780636f9fb98a14610217578063715018a614610242576100fe565b8063155dd5ee146101035780631ddda9b61461012c57806327e235e31461016a5780634c594446146101a7576100fe565b366100fe57005b600080fd5b34801561010f57600080fd5b5061012a6004803603810190610125919061138a565b61038a565b005b34801561013857600080fd5b50610153600480360381019061014e9190611415565b6104b6565b60405161016192919061146c565b60405180910390f35b34801561017657600080fd5b50610191600480360381019061018c9190611415565b610544565b60405161019e9190611495565b60405180910390f35b3480156101b357600080fd5b506101ce60048036038101906101c9919061138a565b61055c565b005b6101ea60048036038101906101e591906115f6565b6105a5565b005b3480156101f857600080fd5b506102016105c4565b60405161020e919061166b565b60405180910390f35b34801561022357600080fd5b5061022c6105f7565b6040516102399190611495565b60405180910390f35b34801561024e57600080fd5b506102576105ff565b005b34801561026557600080fd5b5061026e610613565b60405161027b9190611695565b60405180910390f35b34801561029057600080fd5b5061029961064b565b6040516102a6919061172f565b60405180910390f35b3480156102bb57600080fd5b506102c4610684565b6040516102d19190611495565b60405180910390f35b3480156102e657600080fd5b506102ef61068a565b005b6102f96106d0565b005b34801561030757600080fd5b50610322600480360381019061031d9190611415565b61088f565b60405161032f9190611495565b60405180910390f35b34801561034457600080fd5b5061035f600480360381019061035a9190611415565b6108a7565b005b34801561036d57600080fd5b506103886004803603810190610383919061138a565b61092d565b005b610392610ac3565b6000479050600081116103da576040517f08c379a00000000000000000000000000000000000000000000000000000000081526004016103d1906117c3565b60405180910390fd5b8082111561041d576040517f08c379a000000000000000000000000000000000000000000000000000000000815260040161041490611855565b60405180910390fd5b3373ffffffffffffffffffffffffffffffffffffffff166108fc839081150290604051600060405180830381858888f19350505050158015610463573d6000803e3d6000fd5b503373ffffffffffffffffffffffffffffffffffffffff167fddc398b321237a8d40ac914388309c2f52a08c134e4dc4ce61e32f57cb7d80f1836040516104aa9190611495565b60405180910390a25050565b60008042600160008573ffffffffffffffffffffffffffffffffffffffff1673ffffffffffffffffffffffffffffffffffffffff16815260200190815260200160002054119150600160008473ffffffffffffffffffffffffffffffffffffffff1673ffffffffffffffffffffffffffffffffffffffff168152602001908152602001600020549050915091565b60026020528060005260406000206000915090505481565b610564610ac3565b806000819055507f49bfff56105ab5af711a8d286cc440cd0e52c75a21f4a142331ce97464dfceda8160405161059a9190611495565b60405180910390a150565b6105ad610b4a565b6105b682610c30565b6105c08282610c3b565b5050565b60006105ce610d5a565b7f360894a13ba1a3210667c828492db98dca3e2076cc3735a920a3ca505d382bbc60001b905090565b600047905090565b610607610ac3565b6106116000610de1565b565b60008061061e610eb8565b90508060000160009054906101000a900473ffffffffffffffffffffffffffffffffffffffff1691505090565b6040518060400160405280600581526020017f352e302e3000000000000000000000000000000000000000000000000000000081525081565b60005481565b42600160003373ffffffffffffffffffffffffffffffffffffffff1673ffffffffffffffffffffffffffffffffffffffff16815260200190815260200160002081905550565b600054341015610715576040517f08c379a000000000000000000000000000000000000000000000000000000000815260040161070c906118e7565b60405180910390fd5b6000600160003373ffffffffffffffffffffffffffffffffffffffff1673ffffffffffffffffffffffffffffffffffffffff1681526020019081526020016000205414610797576040517f08c379a000000000000000000000000000000000000000000000000000000000815260040161078e90611979565b60405180910390fd5b62278d00426107a691906119c8565b600160003373ffffffffffffffffffffffffffffffffffffffff1673ffffffffffffffffffffffffffffffffffffffff1681526020019081526020016000208190555034600260003373ffffffffffffffffffffffffffffffffffffffff1673ffffffffffffffffffffffffffffffffffffffff168152602001908152602001600020600082825461083891906119c8565b925050819055503373ffffffffffffffffffffffffffffffffffffffff167f799bcc5d05a0d37fc0012dba6e154d1353b3b36495bf076daf88f7b1428a3f81346040516108859190611495565b60405180910390a2565b60016020528060005260406000206000915090505481565b6108af610ac3565b600073ffffffffffffffffffffffffffffffffffffffff168173ffffffffffffffffffffffffffffffffffffffff16036109215760006040517f1e4fbdf70000000000000000000000000000000000000000000000000000000081526004016109189190611695565b60405180910390fd5b61092a81610de1565b50565b6000610937610ee0565b905060008160000160089054906101000a900460ff1615905060008260000160009054906101000a900467ffffffffffffffff1690506000808267ffffffffffffffff161480156109855750825b9050600060018367ffffffffffffffff161480156109ba575060003073ffffffffffffffffffffffffffffffffffffffff163b145b9050811580156109c8575080155b156109ff576040517ff92ee8a900000000000000000000000000000000000000000000000000000000815260040160405180910390fd5b60018560000160006101000a81548167ffffffffffffffff021916908367ffffffffffffffff1602179055508315610a4f5760018560000160086101000a81548160ff0219169083151502179055505b610a5833610f08565b856000819055508315610abb5760008560000160086101000a81548160ff0219169083151502179055507fc7f505b2f371ae2175ee4913f4499e1f2633a7b5936321eed1cdaeb6115181d26001604051610ab29190611a55565b60405180910390a15b505050505050565b610acb610f1c565b73ffffffffffffffffffffffffffffffffffffffff16610ae9610613565b73ffffffffffffffffffffffffffffffffffffffff1614610b4857610b0c610f1c565b6040517f118cdaa7000000000000000000000000000000000000000000000000000000008152600401610b3f9190611695565b60405180910390fd5b565b7f000000000000000000000000000000000000000000000000000000000000000073ffffffffffffffffffffffffffffffffffffffff163073ffffffffffffffffffffffffffffffffffffffff161480610bf757507f000000000000000000000000000000000000000000000000000000000000000073ffffffffffffffffffffffffffffffffffffffff16610bde610f24565b73ffffffffffffffffffffffffffffffffffffffff1614155b15610c2e576040517fe07c8dba00000000000000000000000000000000000000000000000000000000815260040160405180910390fd5b565b610c38610ac3565b50565b8173ffffffffffffffffffffffffffffffffffffffff166352d1902d6040518163ffffffff1660e01b8152600401602060405180830381865afa925050508015610ca357506040513d601f19601f82011682018060405250810190610ca09190611a9c565b60015b610ce457816040517f4c9c8ce3000000000000000000000000000000000000000000000000000000008152600401610cdb9190611695565b60405180910390fd5b7f360894a13ba1a3210667c828492db98dca3e2076cc3735a920a3ca505d382bbc60001b8114610d4b57806040517faa1d49a4000000000000000000000000000000000000000000000000000000008152600401610d42919061166b565b60405180910390fd5b610d558383610f7b565b505050565b7f000000000000000000000000000000000000000000000000000000000000000073ffffffffffffffffffffffffffffffffffffffff163073ffffffffffffffffffffffffffffffffffffffff1614610ddf576040517fe07c8dba00000000000000000000000000000000000000000000000000000000815260040160405180910390fd5b565b6000610deb610eb8565b905060008160000160009054906101000a900473ffffffffffffffffffffffffffffffffffffffff169050828260000160006101000a81548173ffffffffffffffffffffffffffffffffffffffff021916908373ffffffffffffffffffffffffffffffffffffffff1602179055508273ffffffffffffffffffffffffffffffffffffffff168173ffffffffffffffffffffffffffffffffffffffff167f8be0079c531659141344cd1fd0a4f28419497f9722a3daafe3b4186f6b6457e060405160405180910390a3505050565b60007f9016d09d72d40fdae2fd8ceac6b6234c7706214fd39c1cd1e609a0528c199300905090565b60007ff0c57e16840df040f15088dc2f81fe391c3923bec73e23a9662efc9c229c6a00905090565b610f10610fee565b610f198161102e565b50565b600033905090565b6000610f527f360894a13ba1a3210667c828492db98dca3e2076cc3735a920a3ca505d382bbc60001b6110b4565b60000160009054906101000a900473ffffffffffffffffffffffffffffffffffffffff16905090565b610f84826110be565b8173ffffffffffffffffffffffffffffffffffffffff167fbc7cd75a20ee27fd9adebab32041f755214dbc6bffa90cc0225b39da2e5c2d3b60405160405180910390a2600081511115610fe157610fdb828261118b565b50610fea565b610fe961120f565b5b5050565b610ff661124c565b61102c576040517fd7e6bcf800000000000000000000000000000000000000000000000000000000815260040160405180910390fd5b565b611036610fee565b600073ffffffffffffffffffffffffffffffffffffffff168173ffffffffffffffffffffffffffffffffffffffff16036110a85760006040517f1e4fbdf700000000000000000000000000000000000000000000000000000000815260040161109f9190611695565b60405180910390fd5b6110b181610de1565b50565b6000819050919050565b60008173ffffffffffffffffffffffffffffffffffffffff163b0361111a57806040517f4c9c8ce30000000000000000000000000000000000000000000000000000000081526004016111119190611695565b60405180910390fd5b806111477f360894a13ba1a3210667c828492db98dca3e2076cc3735a920a3ca505d382bbc60001b6110b4565b60000160006101000a81548173ffffffffffffffffffffffffffffffffffffffff021916908373ffffffffffffffffffffffffffffffffffffffff16021790555050565b60606000808473ffffffffffffffffffffffffffffffffffffffff16846040516111b59190611b10565b600060405180830381855af49150503d80600081146111f0576040519150601f19603f3d011682016040523d82523d6000602084013e6111f5565b606091505b509150915061120585838361126c565b9250505092915050565b600034111561124a576040517fb398979f00000000000000000000000000000000000000000000000000000000815260040160405180910390fd5b565b6000611256610ee0565b60000160089054906101000a900460ff16905090565b6060826112815761127c826112fb565b6112f3565b600082511480156112a9575060008473ffffffffffffffffffffffffffffffffffffffff163b145b156112eb57836040517f9996b3150000000000000000000000000000000000000000000000000000000081526004016112e29190611695565b60405180910390fd5b8190506112f4565b5b9392505050565b60008151111561130e5780518082602001fd5b6040517f1425ea4200000000000000000000000000000000000000000000000000000000815260040160405180910390fd5b6000604051905090565b600080fd5b600080fd5b6000819050919050565b61136781611354565b811461137257600080fd5b50565b6000813590506113848161135e565b92915050565b6000602082840312156113a05761139f61134a565b5b60006113ae84828501611375565b91505092915050565b600073ffffffffffffffffffffffffffffffffffffffff82169050919050565b60006113e2826113b7565b9050919050565b6113f2816113d7565b81146113fd57600080fd5b50565b60008135905061140f816113e9565b92915050565b60006020828403121561142b5761142a61134a565b5b600061143984828501611400565b91505092915050565b60008115159050919050565b61145781611442565b82525050565b61146681611354565b82525050565b6000604082019050611481600083018561144e565b61148e602083018461145d565b9392505050565b60006020820190506114aa600083018461145d565b92915050565b600080fd5b600080fd5b6000601f19601f8301169050919050565b7f4e487b7100000000000000000000000000000000000000000000000000000000600052604160045260246000fd5b611503826114ba565b810181811067ffffffffffffffff82111715611522576115216114cb565b5b80604052505050565b6000611535611340565b905061154182826114fa565b919050565b600067ffffffffffffffff821115611561576115606114cb565b5b61156a826114ba565b9050602081019050919050565b82818337600083830152505050565b600061159961159484611546565b61152b565b9050828152602081018484840111156115b5576115b46114b5565b5b6115c0848285611577565b509392505050565b600082601f8301126115dd576115dc6114b0565b5b81356115ed848260208601611586565b91505092915050565b6000806040838503121561160d5761160c61134a565b5b600061161b85828601611400565b925050602083013567ffffffffffffffff81111561163c5761163b61134f565b5b611648858286016115c8565b9150509250929050565b6000819050919050565b61166581611652565b82525050565b6000602082019050611680600083018461165c565b92915050565b61168f816113d7565b82525050565b60006020820190506116aa6000830184611686565b92915050565b600081519050919050565b600082825260208201905092915050565b60005b838110156116ea5780820151818401526020810190506116cf565b60008484015250505050565b6000611701826116b0565b61170b81856116bb565b935061171b8185602086016116cc565b611724816114ba565b840191505092915050565b6000602082019050818103600083015261174981846116f6565b905092915050565b7f4e6f2066756e647320617661696c61626c6520666f722077697468647261776160008201527f6c00000000000000000000000000000000000000000000000000000000000000602082015250565b60006117ad6021836116bb565b91506117b882611751565b604082019050919050565b600060208201905081810360008301526117dc816117a0565b9050919050565b7f5769746864726177616c20616d6f756e74206578636565647320636f6e74726160008201527f63742062616c616e636500000000000000000000000000000000000000000000602082015250565b600061183f602a836116bb565b915061184a826117e3565b604082019050919050565b6000602082019050818103600083015261186e81611832565b9050919050565b7f496e73756666696369656e742066756e647320746f207075726368617365206160008201527f20737562736372697074696f6e00000000000000000000000000000000000000602082015250565b60006118d1602d836116bb565b91506118dc82611875565b604082019050919050565b60006020820190508181036000830152611900816118c4565b9050919050565b7f596f7520616c7265616479206861766520616e2061637469766520737562736360008201527f72697074696f6e00000000000000000000000000000000000000000000000000602082015250565b60006119636027836116bb565b915061196e82611907565b604082019050919050565b6000602082019050818103600083015261199281611956565b9050919050565b7f4e487b7100000000000000000000000000000000000000000000000000000000600052601160045260246000fd5b60006119d382611354565b91506119de83611354565b92508282019050808211156119f6576119f5611999565b5b92915050565b6000819050919050565b600067ffffffffffffffff82169050919050565b6000819050919050565b6000611a3f611a3a611a35846119fc565b611a1a565b611a06565b9050919050565b611a4f81611a24565b82525050565b6000602082019050611a6a6000830184611a46565b92915050565b611a7981611652565b8114611a8457600080fd5b50565b600081519050611a9681611a70565b92915050565b600060208284031215611ab257611ab161134a565b5b6000611ac084828501611a87565b91505092915050565b600081519050919050565b600081905092915050565b6000611aea82611ac9565b611af48185611ad4565b9350611b048185602086016116cc565b80840191505092915050565b6000611b1c8284611adf565b91508190509291505056fea2646970667358221220bb7149d4c053b54ea65a13f597e20f95eaa3e9adb0f612b35d8c784d13f1be4964736f6c63430008150033",
  "linkReferences": {},
  "deployedLinkReferences": {}
}